{
	"_format": "hh-sol-artifact-1",
	"contractName": "Lensord",
	"sourceName": "contracts/Lensord.sol",
	"abi": [
		{
			"inputs": [
				{
					"internalType": "address",
					"name": "_requester",
					"type": "address"
				}
			],
			"name": "acceptFriendRequest",
			"outputs": [],
			"stateMutability": "nonpayable",
			"type": "function"
		},
		{
			"inputs": [
				{
					"internalType": "uint256",
					"name": "_serverId",
					"type": "uint256"
				},
				{
					"internalType": "string",
					"name": "_channelName",
					"type": "string"
				}
			],
			"name": "createChannel",
			"outputs": [],
			"stateMutability": "nonpayable",
			"type": "function"
		},
		{
			"inputs": [
				{
					"internalType": "bool",
					"name": "_isPrivate",
					"type": "bool"
				},
				{
					"internalType": "address[]",
					"name": "_initialMembers",
					"type": "address[]"
				},
				{
					"internalType": "string",
					"name": "_name",
					"type": "string"
				}
			],
			"name": "createServer",
			"outputs": [],
			"stateMutability": "nonpayable",
			"type": "function"
		},
		{
			"inputs": [],
			"name": "getFriendList",
			"outputs": [
				{
					"internalType": "address[]",
					"name": "",
					"type": "address[]"
				}
			],
			"stateMutability": "view",
			"type": "function"
		},
		{
			"inputs": [
				{
					"internalType": "address",
					"name": "_user",
					"type": "address"
				}
			],
			"name": "getFriendRequests",
			"outputs": [
				{
					"components": [
						{
							"internalType": "address",
							"name": "requester",
							"type": "address"
						},
						{
							"internalType": "bool",
							"name": "accepted",
							"type": "bool"
						}
					],
					"internalType": "struct Lensord.FriendRequest[]",
					"name": "",
					"type": "tuple[]"
				}
			],
			"stateMutability": "view",
			"type": "function"
		},
		{
			"inputs": [
				{
					"internalType": "address",
					"name": "_user",
					"type": "address"
				}
			],
			"name": "getJoinedServers",
			"outputs": [
				{
					"components": [
						{
							"internalType": "uint256",
							"name": "id",
							"type": "uint256"
						},
						{
							"internalType": "address",
							"name": "owner",
							"type": "address"
						},
						{
							"internalType": "string",
							"name": "name",
							"type": "string"
						},
						{
							"internalType": "bool",
							"name": "isPrivate",
							"type": "bool"
						},
						{
							"internalType": "address[]",
							"name": "members",
							"type": "address[]"
						},
						{
							"components": [
								{
									"internalType": "uint256",
									"name": "id",
									"type": "uint256"
								},
								{
									"internalType": "string",
									"name": "name",
									"type": "string"
								}
							],
							"internalType": "struct Lensord.Channel[]",
							"name": "channels",
							"type": "tuple[]"
						}
					],
					"internalType": "struct Lensord.Server[]",
					"name": "",
					"type": "tuple[]"
				}
			],
			"stateMutability": "view",
			"type": "function"
		},
		{
			"inputs": [
				{
					"internalType": "address",
					"name": "_user",
					"type": "address"
				}
			],
			"name": "getOwnedServers",
			"outputs": [
				{
					"components": [
						{
							"internalType": "uint256",
							"name": "id",
							"type": "uint256"
						},
						{
							"internalType": "address",
							"name": "owner",
							"type": "address"
						},
						{
							"internalType": "string",
							"name": "name",
							"type": "string"
						},
						{
							"internalType": "bool",
							"name": "isPrivate",
							"type": "bool"
						},
						{
							"internalType": "address[]",
							"name": "members",
							"type": "address[]"
						},
						{
							"components": [
								{
									"internalType": "uint256",
									"name": "id",
									"type": "uint256"
								},
								{
									"internalType": "string",
									"name": "name",
									"type": "string"
								}
							],
							"internalType": "struct Lensord.Channel[]",
							"name": "channels",
							"type": "tuple[]"
						}
					],
					"internalType": "struct Lensord.Server[]",
					"name": "",
					"type": "tuple[]"
				}
			],
			"stateMutability": "view",
			"type": "function"
		},
		{
			"inputs": [
				{
					"internalType": "address",
					"name": "_user",
					"type": "address"
				}
			],
			"name": "getSentFriendRequests",
			"outputs": [
				{
					"components": [
						{
							"internalType": "address",
							"name": "requester",
							"type": "address"
						},
						{
							"internalType": "bool",
							"name": "accepted",
							"type": "bool"
						}
					],
					"internalType": "struct Lensord.FriendRequest[]",
					"name": "",
					"type": "tuple[]"
				}
			],
			"stateMutability": "view",
			"type": "function"
		},
		{
			"inputs": [
				{
					"internalType": "uint256",
					"name": "_serverId",
					"type": "uint256"
				}
			],
			"name": "getServer",
			"outputs": [
				{
					"components": [
						{
							"internalType": "uint256",
							"name": "id",
							"type": "uint256"
						},
						{
							"internalType": "address",
							"name": "owner",
							"type": "address"
						},
						{
							"internalType": "string",
							"name": "name",
							"type": "string"
						},
						{
							"internalType": "bool",
							"name": "isPrivate",
							"type": "bool"
						},
						{
							"internalType": "address[]",
							"name": "members",
							"type": "address[]"
						},
						{
							"components": [
								{
									"internalType": "uint256",
									"name": "id",
									"type": "uint256"
								},
								{
									"internalType": "string",
									"name": "name",
									"type": "string"
								}
							],
							"internalType": "struct Lensord.Channel[]",
							"name": "channels",
							"type": "tuple[]"
						}
					],
					"internalType": "struct Lensord.Server",
					"name": "",
					"type": "tuple"
				}
			],
			"stateMutability": "view",
			"type": "function"
		},
		{
			"inputs": [
				{
					"internalType": "address",
					"name": "_sender",
					"type": "address"
				}
			],
			"name": "isRegistered",
			"outputs": [
				{
					"internalType": "bool",
					"name": "",
					"type": "bool"
				}
			],
			"stateMutability": "view",
			"type": "function"
		},
		{
			"inputs": [
				{
					"internalType": "uint256",
					"name": "_serverId",
					"type": "uint256"
				}
			],
			"name": "joinServer",
			"outputs": [],
			"stateMutability": "nonpayable",
			"type": "function"
		},
		{
			"inputs": [
				{
					"internalType": "address",
					"name": "",
					"type": "address"
				},
				{
					"internalType": "uint256",
					"name": "",
					"type": "uint256"
				}
			],
			"name": "receivedFriendRequests",
			"outputs": [
				{
					"internalType": "address",
					"name": "requester",
					"type": "address"
				},
				{
					"internalType": "bool",
					"name": "accepted",
					"type": "bool"
				}
			],
			"stateMutability": "view",
			"type": "function"
		},
		{
			"inputs": [],
			"name": "registerUser",
			"outputs": [],
			"stateMutability": "nonpayable",
			"type": "function"
		},
		{
			"inputs": [
				{
					"internalType": "address",
					"name": "",
					"type": "address"
				}
			],
			"name": "registeredUsers",
			"outputs": [
				{
					"internalType": "bool",
					"name": "",
					"type": "bool"
				}
			],
			"stateMutability": "view",
			"type": "function"
		},
		{
			"inputs": [
				{
					"internalType": "address",
					"name": "_friendAddress",
					"type": "address"
				}
			],
			"name": "sendFriendRequest",
			"outputs": [],
			"stateMutability": "nonpayable",
			"type": "function"
		},
		{
			"inputs": [
				{
					"internalType": "address",
					"name": "",
					"type": "address"
				},
				{
					"internalType": "uint256",
					"name": "",
					"type": "uint256"
				}
			],
			"name": "sentFriendRequests",
			"outputs": [
				{
					"internalType": "address",
					"name": "requester",
					"type": "address"
				},
				{
					"internalType": "bool",
					"name": "accepted",
					"type": "bool"
				}
			],
			"stateMutability": "view",
			"type": "function"
		},
		{
			"inputs": [
				{
					"internalType": "uint256",
					"name": "",
					"type": "uint256"
				}
			],
			"name": "servers",
			"outputs": [
				{
					"internalType": "uint256",
					"name": "id",
					"type": "uint256"
				},
				{
					"internalType": "address",
					"name": "owner",
					"type": "address"
				},
				{
					"internalType": "string",
					"name": "name",
					"type": "string"
				},
				{
					"internalType": "bool",
					"name": "isPrivate",
					"type": "bool"
				}
			],
			"stateMutability": "view",
			"type": "function"
		}
	],
	"bytecode": "0x608060405234801561001057600080fd5b50613f4b806100206000396000f3fe608060405234801561001057600080fd5b506004361061010b5760003560e01c8063837b770a116100a2578063b6a1a45e11610071578063b6a1a45e146102e0578063b7920cb8146102fc578063c3c5a5471461032d578063ed6ac3151461035d578063fccaaa5f146103795761010b565b8063837b770a1461025a5780638d2cb64f14610276578063966f7d6e14610294578063a9f56466146102c45761010b565b806353d056c0116100de57806353d056c014610196578063546b270d146101c65780635cf0f357146101f65780635f383e73146102295761010b565b80630e50cee5146101105780632c4e920c1461014057806346206b611461015c5780634d3820eb1461018c575b600080fd5b61012a60048036038101906101259190612d54565b6103a9565b6040516101379190612d9c565b60405180910390f35b61015a60048036038101906101559190612f33565b6103c9565b005b61017660048036038101906101719190612d54565b6107f8565b6040516101839190613342565b60405180910390f35b610194610c95565b005b6101b060048036038101906101ab9190612d54565b610d7a565b6040516101bd9190613442565b60405180910390f35b6101e060048036038101906101db9190613464565b610e85565b6040516101ed9190613528565b60405180910390f35b610210600480360381019061020b9190613464565b611227565b60405161022094939291906135b2565b60405180910390f35b610243600480360381019061023e91906135fe565b61131c565b60405161025192919061363e565b60405180910390f35b610274600480360381019061026f9190612d54565b611386565b005b61027e611678565b60405161028b91906136d6565b60405180910390f35b6102ae60048036038101906102a99190612d54565b611896565b6040516102bb9190613442565b60405180910390f35b6102de60048036038101906102d99190612d54565b6119a1565b005b6102fa60048036038101906102f591906137ec565b611c62565b005b610316600480360381019061031191906135fe565b611f24565b60405161032492919061363e565b60405180910390f35b61034760048036038101906103429190612d54565b611f8e565b6040516103549190612d9c565b60405180910390f35b61037760048036038101906103729190613464565b611fe3565b005b610393600480360381019061038e9190612d54565b612174565b6040516103a09190613342565b60405180910390f35b60006020528060005260406000206000915054906101000a900460ff1681565b8160038054905011610410576040517f08c379a0000000000000000000000000000000000000000000000000000000008152600401610407906138c3565b60405180910390fd5b600060038381548110610426576104256138e3565b5b906000526020600020906006020190503373ffffffffffffffffffffffffffffffffffffffff168160010160009054906101000a900473ffffffffffffffffffffffffffffffffffffffff1673ffffffffffffffffffffffffffffffffffffffff16148061073b575061073a816040518060c0016040529081600082015481526020016001820160009054906101000a900473ffffffffffffffffffffffffffffffffffffffff1673ffffffffffffffffffffffffffffffffffffffff1673ffffffffffffffffffffffffffffffffffffffff16815260200160028201805461050e90613941565b80601f016020809104026020016040519081016040528092919081815260200182805461053a90613941565b80156105875780601f1061055c57610100808354040283529160200191610587565b820191906000526020600020905b81548152906001019060200180831161056a57829003601f168201915b505050505081526020016003820160009054906101000a900460ff161515151581526020016004820180548060200260200160405190810160405280929190818152602001828054801561063057602002820191906000526020600020905b8160009054906101000a900473ffffffffffffffffffffffffffffffffffffffff1673ffffffffffffffffffffffffffffffffffffffff16815260200190600101908083116105e6575b5050505050815260200160058201805480602002602001604051908101604052809291908181526020016000905b8282101561072c57838290600052602060002090600202016040518060400160405290816000820154815260200160018201805461069b90613941565b80601f01602080910402602001604051908101604052809291908181526020018280546106c790613941565b80156107145780601f106106e957610100808354040283529160200191610714565b820191906000526020600020905b8154815290600101906020018083116106f757829003601f168201915b5050505050815250508152602001906001019061065e565b505050508152505033612ac3565b5b61077a576040517f08c379a0000000000000000000000000000000000000000000000000000000008152600401610771906139be565b60405180910390fd5b60008160050180549050905061078e612c7a565b81816000018181525050838160200181905250826005018190806001815401808255809150506001900390600052602060002090600202016000909190919091506000820151816000015560208201518160010190816107ee9190613b8a565b5050505050505050565b6060806000805b6003805490508110156108a6578473ffffffffffffffffffffffffffffffffffffffff1660038281548110610837576108366138e3565b5b906000526020600020906006020160010160009054906101000a900473ffffffffffffffffffffffffffffffffffffffff1673ffffffffffffffffffffffffffffffffffffffff160361089357818061088f90613c8b565b9250505b808061089e90613c8b565b9150506107ff565b508067ffffffffffffffff8111156108c1576108c0612e08565b5b6040519080825280602002602001820160405280156108fa57816020015b6108e7612c94565b8152602001906001900390816108df5790505b5091506000805b600380549050811015610c89578573ffffffffffffffffffffffffffffffffffffffff1660038281548110610939576109386138e3565b5b906000526020600020906006020160010160009054906101000a900473ffffffffffffffffffffffffffffffffffffffff1673ffffffffffffffffffffffffffffffffffffffff1603610c76576003818154811061099a576109996138e3565b5b90600052602060002090600602016040518060c0016040529081600082015481526020016001820160009054906101000a900473ffffffffffffffffffffffffffffffffffffffff1673ffffffffffffffffffffffffffffffffffffffff1673ffffffffffffffffffffffffffffffffffffffff168152602001600282018054610a2390613941565b80601f0160208091040260200160405190810160405280929190818152602001828054610a4f90613941565b8015610a9c5780601f10610a7157610100808354040283529160200191610a9c565b820191906000526020600020905b815481529060010190602001808311610a7f57829003601f168201915b505050505081526020016003820160009054906101000a900460ff1615151515815260200160048201805480602002602001604051908101604052809291908181526020018280548015610b4557602002820191906000526020600020905b8160009054906101000a900473ffffffffffffffffffffffffffffffffffffffff1673ffffffffffffffffffffffffffffffffffffffff1681526020019060010190808311610afb575b5050505050815260200160058201805480602002602001604051908101604052809291908181526020016000905b82821015610c41578382906000526020600020906002020160405180604001604052908160008201548152602001600182018054610bb090613941565b80601f0160208091040260200160405190810160405280929190818152602001828054610bdc90613941565b8015610c295780601f10610bfe57610100808354040283529160200191610c29565b820191906000526020600020905b815481529060010190602001808311610c0c57829003601f168201915b50505050508152505081526020019060010190610b73565b5050505081525050848381518110610c5c57610c5b6138e3565b5b60200260200101819052508180610c7290613c8b565b9250505b8080610c8190613c8b565b915050610901565b50829350505050919050565b6000803373ffffffffffffffffffffffffffffffffffffffff1673ffffffffffffffffffffffffffffffffffffffff16815260200190815260200160002060009054906101000a900460ff1615610d21576040517f08c379a0000000000000000000000000000000000000000000000000000000008152600401610d1890613d1f565b60405180910390fd5b60016000803373ffffffffffffffffffffffffffffffffffffffff1673ffffffffffffffffffffffffffffffffffffffff16815260200190815260200160002060006101000a81548160ff021916908315150217905550565b6060600160008373ffffffffffffffffffffffffffffffffffffffff1673ffffffffffffffffffffffffffffffffffffffff168152602001908152602001600020805480602002602001604051908101604052809291908181526020016000905b82821015610e7a578382906000526020600020016040518060400160405290816000820160009054906101000a900473ffffffffffffffffffffffffffffffffffffffff1673ffffffffffffffffffffffffffffffffffffffff1673ffffffffffffffffffffffffffffffffffffffff1681526020016000820160149054906101000a900460ff16151515158152505081526020019060010190610ddb565b505050509050919050565b610e8d612c94565b8160038054905011610ed4576040517f08c379a0000000000000000000000000000000000000000000000000000000008152600401610ecb906138c3565b60405180910390fd5b600060038381548110610eea57610ee96138e3565b5b90600052602060002090600602016040518060c0016040529081600082015481526020016001820160009054906101000a900473ffffffffffffffffffffffffffffffffffffffff1673ffffffffffffffffffffffffffffffffffffffff1673ffffffffffffffffffffffffffffffffffffffff168152602001600282018054610f7390613941565b80601f0160208091040260200160405190810160405280929190818152602001828054610f9f90613941565b8015610fec5780601f10610fc157610100808354040283529160200191610fec565b820191906000526020600020905b815481529060010190602001808311610fcf57829003601f168201915b505050505081526020016003820160009054906101000a900460ff161515151581526020016004820180548060200260200160405190810160405280929190818152602001828054801561109557602002820191906000526020600020905b8160009054906101000a900473ffffffffffffffffffffffffffffffffffffffff1673ffffffffffffffffffffffffffffffffffffffff168152602001906001019080831161104b575b5050505050815260200160058201805480602002602001604051908101604052809291908181526020016000905b8282101561119157838290600052602060002090600202016040518060400160405290816000820154815260200160018201805461110090613941565b80601f016020809104026020016040519081016040528092919081815260200182805461112c90613941565b80156111795780601f1061114e57610100808354040283529160200191611179565b820191906000526020600020905b81548152906001019060200180831161115c57829003601f168201915b505050505081525050815260200190600101906110c3565b505050508152505090503373ffffffffffffffffffffffffffffffffffffffff16816020015173ffffffffffffffffffffffffffffffffffffffff1614806111df57506111de8133612ac3565b5b61121e576040517f08c379a0000000000000000000000000000000000000000000000000000000008152600401611215906139be565b60405180910390fd5b80915050919050565b6003818154811061123757600080fd5b90600052602060002090600602016000915090508060000154908060010160009054906101000a900473ffffffffffffffffffffffffffffffffffffffff169080600201805461128690613941565b80601f01602080910402602001604051908101604052809291908181526020018280546112b290613941565b80156112ff5780601f106112d4576101008083540402835291602001916112ff565b820191906000526020600020905b8154815290600101906020018083116112e257829003601f168201915b5050505050908060030160009054906101000a900460ff16905084565b6002602052816000526040600020818154811061133857600080fd5b90600052602060002001600091509150508060000160009054906101000a900473ffffffffffffffffffffffffffffffffffffffff16908060000160149054906101000a900460ff16905082565b6000808273ffffffffffffffffffffffffffffffffffffffff1673ffffffffffffffffffffffffffffffffffffffff16815260200190815260200160002060009054906101000a900460ff16611411576040517f08c379a000000000000000000000000000000000000000000000000000000000815260040161140890613d8b565b60405180910390fd5b3373ffffffffffffffffffffffffffffffffffffffff168173ffffffffffffffffffffffffffffffffffffffff160361147f576040517f08c379a000000000000000000000000000000000000000000000000000000000815260040161147690613e1d565b60405180910390fd5b600260003373ffffffffffffffffffffffffffffffffffffffff1673ffffffffffffffffffffffffffffffffffffffff16815260200190815260200160002060405180604001604052808373ffffffffffffffffffffffffffffffffffffffff168152602001600015158152509080600181540180825580915050600190039060005260206000200160009091909190915060008201518160000160006101000a81548173ffffffffffffffffffffffffffffffffffffffff021916908373ffffffffffffffffffffffffffffffffffffffff16021790555060208201518160000160146101000a81548160ff0219169083151502179055505050600160008273ffffffffffffffffffffffffffffffffffffffff1673ffffffffffffffffffffffffffffffffffffffff16815260200190815260200160002060405180604001604052803373ffffffffffffffffffffffffffffffffffffffff168152602001600015158152509080600181540180825580915050600190039060005260206000200160009091909190915060008201518160000160006101000a81548173ffffffffffffffffffffffffffffffffffffffff021916908373ffffffffffffffffffffffffffffffffffffffff16021790555060208201518160000160146101000a81548160ff021916908315150217905550505050565b60606000803373ffffffffffffffffffffffffffffffffffffffff1673ffffffffffffffffffffffffffffffffffffffff16815260200190815260200160002060009054906101000a900460ff16611705576040517f08c379a00000000000000000000000000000000000000000000000000000000081526004016116fc90613d8b565b60405180910390fd5b6000600260003373ffffffffffffffffffffffffffffffffffffffff1673ffffffffffffffffffffffffffffffffffffffff16815260200190815260200160002090506000818054905067ffffffffffffffff81111561176857611767612e08565b5b6040519080825280602002602001820160405280156117965781602001602082028036833780820191505090505b5090506000805b838054905081101561188c578381815481106117bc576117bb6138e3565b5b9060005260206000200160000160149054906101000a900460ff1615611879578381815481106117ef576117ee6138e3565b5b9060005260206000200160000160009054906101000a900473ffffffffffffffffffffffffffffffffffffffff168383815181106118305761182f6138e3565b5b602002602001019073ffffffffffffffffffffffffffffffffffffffff16908173ffffffffffffffffffffffffffffffffffffffff1681525050818061187590613c8b565b9250505b808061188490613c8b565b91505061179d565b5081935050505090565b6060600260008373ffffffffffffffffffffffffffffffffffffffff1673ffffffffffffffffffffffffffffffffffffffff168152602001908152602001600020805480602002602001604051908101604052809291908181526020016000905b82821015611996578382906000526020600020016040518060400160405290816000820160009054906101000a900473ffffffffffffffffffffffffffffffffffffffff1673ffffffffffffffffffffffffffffffffffffffff1673ffffffffffffffffffffffffffffffffffffffff1681526020016000820160149054906101000a900460ff161515151581525050815260200190600101906118f7565b505050509050919050565b6000600160003373ffffffffffffffffffffffffffffffffffffffff1673ffffffffffffffffffffffffffffffffffffffff16815260200190815260200160002090506000600260008473ffffffffffffffffffffffffffffffffffffffff1673ffffffffffffffffffffffffffffffffffffffff16815260200190815260200160002090506000805b8380549050811015611aff578473ffffffffffffffffffffffffffffffffffffffff16848281548110611a6157611a606138e3565b5b9060005260206000200160000160009054906101000a900473ffffffffffffffffffffffffffffffffffffffff1673ffffffffffffffffffffffffffffffffffffffff1603611aec576001848281548110611abf57611abe6138e3565b5b9060005260206000200160000160146101000a81548160ff02191690831515021790555060019150611aff565b8080611af790613c8b565b915050611a2b565b5080611b40576040517f08c379a0000000000000000000000000000000000000000000000000000000008152600401611b3790613e89565b60405180910390fd5b6000905060005b8280549050811015611c1b573373ffffffffffffffffffffffffffffffffffffffff16838281548110611b7d57611b7c6138e3565b5b9060005260206000200160000160009054906101000a900473ffffffffffffffffffffffffffffffffffffffff1673ffffffffffffffffffffffffffffffffffffffff1603611c08576001838281548110611bdb57611bda6138e3565b5b9060005260206000200160000160146101000a81548160ff02191690831515021790555060019150611c1b565b8080611c1390613c8b565b915050611b47565b5080611c5c576040517f08c379a0000000000000000000000000000000000000000000000000000000008152600401611c5390613e89565b60405180910390fd5b50505050565b6000803373ffffffffffffffffffffffffffffffffffffffff1673ffffffffffffffffffffffffffffffffffffffff16815260200190815260200160002060009054906101000a900460ff16611ced576040517f08c379a0000000000000000000000000000000000000000000000000000000008152600401611ce490613d8b565b60405180910390fd5b6000600380549050905060006003600181600181540180825580915050039060005260206000209060060201905081816000018190555082816002019081611d359190613b8a565b50338160010160006101000a81548173ffffffffffffffffffffffffffffffffffffffff021916908373ffffffffffffffffffffffffffffffffffffffff160217905550848160030160006101000a81548160ff02191690831515021790555080600401339080600181540180825580915050600190039060005260206000200160009091909190916101000a81548173ffffffffffffffffffffffffffffffffffffffff021916908373ffffffffffffffffffffffffffffffffffffffff16021790555060008160050180549050905060008260050160018160018154018082558091505003906000526020600020906002020190508181600001819055506040518060400160405280600781526020017f47656e6572616c00000000000000000000000000000000000000000000000000815250816001019081611e7b9190613b8a565b5060005b8651811015611f1a5783600401878281518110611e9f57611e9e6138e3565b5b60200260200101519080600181540180825580915050600190039060005260206000200160009091909190916101000a81548173ffffffffffffffffffffffffffffffffffffffff021916908373ffffffffffffffffffffffffffffffffffffffff1602179055508080611f1290613c8b565b915050611e7f565b5050505050505050565b60016020528160005260406000208181548110611f4057600080fd5b90600052602060002001600091509150508060000160009054906101000a900473ffffffffffffffffffffffffffffffffffffffff16908060000160149054906101000a900460ff16905082565b60008060008373ffffffffffffffffffffffffffffffffffffffff1673ffffffffffffffffffffffffffffffffffffffff16815260200190815260200160002060009054906101000a900460ff169050919050565b806003805490501161202a576040517f08c379a0000000000000000000000000000000000000000000000000000000008152600401612021906138c3565b60405180910390fd5b6000600382815481106120405761203f6138e3565b5b906000526020600020906006020190508060030160009054906101000a900460ff161561210b576120958160010160009054906101000a900473ffffffffffffffffffffffffffffffffffffffff1633612b52565b80156120cb57506120ca338260010160009054906101000a900473ffffffffffffffffffffffffffffffffffffffff16612b52565b5b61210a576040517f08c379a000000000000000000000000000000000000000000000000000000000815260040161210190613ef5565b60405180910390fd5b5b80600401339080600181540180825580915050600190039060005260206000200160009091909190916101000a81548173ffffffffffffffffffffffffffffffffffffffff021916908373ffffffffffffffffffffffffffffffffffffffff1602179055505050565b6060806000805b60038054905081101561247b576124546003828154811061219f5761219e6138e3565b5b90600052602060002090600602016040518060c0016040529081600082015481526020016001820160009054906101000a900473ffffffffffffffffffffffffffffffffffffffff1673ffffffffffffffffffffffffffffffffffffffff1673ffffffffffffffffffffffffffffffffffffffff16815260200160028201805461222890613941565b80601f016020809104026020016040519081016040528092919081815260200182805461225490613941565b80156122a15780601f10612276576101008083540402835291602001916122a1565b820191906000526020600020905b81548152906001019060200180831161228457829003601f168201915b505050505081526020016003820160009054906101000a900460ff161515151581526020016004820180548060200260200160405190810160405280929190818152602001828054801561234a57602002820191906000526020600020905b8160009054906101000a900473ffffffffffffffffffffffffffffffffffffffff1673ffffffffffffffffffffffffffffffffffffffff1681526020019060010190808311612300575b5050505050815260200160058201805480602002602001604051908101604052809291908181526020016000905b828210156124465783829060005260206000209060020201604051806040016040529081600082015481526020016001820180546123b590613941565b80601f01602080910402602001604051908101604052809291908181526020018280546123e190613941565b801561242e5780601f106124035761010080835404028352916020019161242e565b820191906000526020600020905b81548152906001019060200180831161241157829003601f168201915b50505050508152505081526020019060010190612378565b505050508152505086612ac3565b1561246857818061246490613c8b565b9250505b808061247390613c8b565b91505061217b565b508067ffffffffffffffff81111561249657612495612e08565b5b6040519080825280602002602001820160405280156124cf57816020015b6124bc612c94565b8152602001906001900390816124b45790505b5091506000805b600380549050811015612ab7576127af600382815481106124fa576124f96138e3565b5b90600052602060002090600602016040518060c0016040529081600082015481526020016001820160009054906101000a900473ffffffffffffffffffffffffffffffffffffffff1673ffffffffffffffffffffffffffffffffffffffff1673ffffffffffffffffffffffffffffffffffffffff16815260200160028201805461258390613941565b80601f01602080910402602001604051908101604052809291908181526020018280546125af90613941565b80156125fc5780601f106125d1576101008083540402835291602001916125fc565b820191906000526020600020905b8154815290600101906020018083116125df57829003601f168201915b505050505081526020016003820160009054906101000a900460ff16151515158152602001600482018054806020026020016040519081016040528092919081815260200182805480156126a557602002820191906000526020600020905b8160009054906101000a900473ffffffffffffffffffffffffffffffffffffffff1673ffffffffffffffffffffffffffffffffffffffff168152602001906001019080831161265b575b5050505050815260200160058201805480602002602001604051908101604052809291908181526020016000905b828210156127a157838290600052602060002090600202016040518060400160405290816000820154815260200160018201805461271090613941565b80601f016020809104026020016040519081016040528092919081815260200182805461273c90613941565b80156127895780601f1061275e57610100808354040283529160200191612789565b820191906000526020600020905b81548152906001019060200180831161276c57829003601f168201915b505050505081525050815260200190600101906126d3565b505050508152505087612ac3565b15612aa457600381815481106127c8576127c76138e3565b5b90600052602060002090600602016040518060c0016040529081600082015481526020016001820160009054906101000a900473ffffffffffffffffffffffffffffffffffffffff1673ffffffffffffffffffffffffffffffffffffffff1673ffffffffffffffffffffffffffffffffffffffff16815260200160028201805461285190613941565b80601f016020809104026020016040519081016040528092919081815260200182805461287d90613941565b80156128ca5780601f1061289f576101008083540402835291602001916128ca565b820191906000526020600020905b8154815290600101906020018083116128ad57829003601f168201915b505050505081526020016003820160009054906101000a900460ff161515151581526020016004820180548060200260200160405190810160405280929190818152602001828054801561297357602002820191906000526020600020905b8160009054906101000a900473ffffffffffffffffffffffffffffffffffffffff1673ffffffffffffffffffffffffffffffffffffffff1681526020019060010190808311612929575b5050505050815260200160058201805480602002602001604051908101604052809291908181526020016000905b82821015612a6f5783829060005260206000209060020201604051806040016040529081600082015481526020016001820180546129de90613941565b80601f0160208091040260200160405190810160405280929190818152602001828054612a0a90613941565b8015612a575780601f10612a2c57610100808354040283529160200191612a57565b820191906000526020600020905b815481529060010190602001808311612a3a57829003601f168201915b505050505081525050815260200190600101906129a1565b5050505081525050848381518110612a8a57612a896138e3565b5b60200260200101819052508180612aa090613c8b565b9250505b8080612aaf90613c8b565b9150506124d6565b50829350505050919050565b600080600090505b836080015151811015612b46578273ffffffffffffffffffffffffffffffffffffffff1684608001518281518110612b0657612b056138e3565b5b602002602001015173ffffffffffffffffffffffffffffffffffffffff1603612b33576001915050612b4c565b8080612b3e90613c8b565b915050612acb565b50600090505b92915050565b600080600260008573ffffffffffffffffffffffffffffffffffffffff1673ffffffffffffffffffffffffffffffffffffffff168152602001908152602001600020905060005b8180549050811015612c6d578373ffffffffffffffffffffffffffffffffffffffff16828281548110612bcf57612bce6138e3565b5b9060005260206000200160000160009054906101000a900473ffffffffffffffffffffffffffffffffffffffff1673ffffffffffffffffffffffffffffffffffffffff16148015612c4a5750818181548110612c2e57612c2d6138e3565b5b9060005260206000200160000160149054906101000a900460ff165b15612c5a57600192505050612c74565b8080612c6590613c8b565b915050612b99565b5060009150505b92915050565b604051806040016040528060008152602001606081525090565b6040518060c0016040528060008152602001600073ffffffffffffffffffffffffffffffffffffffff1681526020016060815260200160001515815260200160608152602001606081525090565b6000604051905090565b600080fd5b600080fd5b600073ffffffffffffffffffffffffffffffffffffffff82169050919050565b6000612d2182612cf6565b9050919050565b612d3181612d16565b8114612d3c57600080fd5b50565b600081359050612d4e81612d28565b92915050565b600060208284031215612d6a57612d69612cec565b5b6000612d7884828501612d3f565b91505092915050565b60008115159050919050565b612d9681612d81565b82525050565b6000602082019050612db16000830184612d8d565b92915050565b6000819050919050565b612dca81612db7565b8114612dd557600080fd5b50565b600081359050612de781612dc1565b92915050565b600080fd5b600080fd5b6000601f19601f8301169050919050565b7f4e487b7100000000000000000000000000000000000000000000000000000000600052604160045260246000fd5b612e4082612df7565b810181811067ffffffffffffffff82111715612e5f57612e5e612e08565b5b80604052505050565b6000612e72612ce2565b9050612e7e8282612e37565b919050565b600067ffffffffffffffff821115612e9e57612e9d612e08565b5b612ea782612df7565b9050602081019050919050565b82818337600083830152505050565b6000612ed6612ed184612e83565b612e68565b905082815260208101848484011115612ef257612ef1612df2565b5b612efd848285612eb4565b509392505050565b600082601f830112612f1a57612f19612ded565b5b8135612f2a848260208601612ec3565b91505092915050565b60008060408385031215612f4a57612f49612cec565b5b6000612f5885828601612dd8565b925050602083013567ffffffffffffffff811115612f7957612f78612cf1565b5b612f8585828601612f05565b9150509250929050565b600081519050919050565b600082825260208201905092915050565b6000819050602082019050919050565b612fc481612db7565b82525050565b612fd381612d16565b82525050565b600081519050919050565b600082825260208201905092915050565b60005b83811015613013578082015181840152602081019050612ff8565b60008484015250505050565b600061302a82612fd9565b6130348185612fe4565b9350613044818560208601612ff5565b61304d81612df7565b840191505092915050565b61306181612d81565b82525050565b600081519050919050565b600082825260208201905092915050565b6000819050602082019050919050565b600061309f8383612fca565b60208301905092915050565b6000602082019050919050565b60006130c382613067565b6130cd8185613072565b93506130d883613083565b8060005b838110156131095781516130f08882613093565b97506130fb836130ab565b9250506001810190506130dc565b5085935050505092915050565b600081519050919050565b600082825260208201905092915050565b6000819050602082019050919050565b600060408301600083015161315a6000860182612fbb565b5060208301518482036020860152613172828261301f565b9150508091505092915050565b600061318b8383613142565b905092915050565b6000602082019050919050565b60006131ab82613116565b6131b58185613121565b9350836020820285016131c785613132565b8060005b8581101561320357848403895281516131e4858261317f565b94506131ef83613193565b925060208a019950506001810190506131cb565b50829750879550505050505092915050565b600060c08301600083015161322d6000860182612fbb565b5060208301516132406020860182612fca565b5060408301518482036040860152613258828261301f565b915050606083015161326d6060860182613058565b506080830151848203608086015261328582826130b8565b91505060a083015184820360a086015261329f82826131a0565b9150508091505092915050565b60006132b88383613215565b905092915050565b6000602082019050919050565b60006132d882612f8f565b6132e28185612f9a565b9350836020820285016132f485612fab565b8060005b85811015613330578484038952815161331185826132ac565b945061331c836132c0565b925060208a019950506001810190506132f8565b50829750879550505050505092915050565b6000602082019050818103600083015261335c81846132cd565b905092915050565b600081519050919050565b600082825260208201905092915050565b6000819050602082019050919050565b6040820160008201516133a66000850182612fca565b5060208201516133b96020850182613058565b50505050565b60006133cb8383613390565b60408301905092915050565b6000602082019050919050565b60006133ef82613364565b6133f9818561336f565b935061340483613380565b8060005b8381101561343557815161341c88826133bf565b9750613427836133d7565b925050600181019050613408565b5085935050505092915050565b6000602082019050818103600083015261345c81846133e4565b905092915050565b60006020828403121561347a57613479612cec565b5b600061348884828501612dd8565b91505092915050565b600060c0830160008301516134a96000860182612fbb565b5060208301516134bc6020860182612fca565b50604083015184820360408601526134d4828261301f565b91505060608301516134e96060860182613058565b506080830151848203608086015261350182826130b8565b91505060a083015184820360a086015261351b82826131a0565b9150508091505092915050565b600060208201905081810360008301526135428184613491565b905092915050565b61355381612db7565b82525050565b61356281612d16565b82525050565b600082825260208201905092915050565b600061358482612fd9565b61358e8185613568565b935061359e818560208601612ff5565b6135a781612df7565b840191505092915050565b60006080820190506135c7600083018761354a565b6135d46020830186613559565b81810360408301526135e68185613579565b90506135f56060830184612d8d565b95945050505050565b6000806040838503121561361557613614612cec565b5b600061362385828601612d3f565b925050602061363485828601612dd8565b9150509250929050565b60006040820190506136536000830185613559565b6136606020830184612d8d565b9392505050565b600082825260208201905092915050565b600061368382613067565b61368d8185613667565b935061369883613083565b8060005b838110156136c95781516136b08882613093565b97506136bb836130ab565b92505060018101905061369c565b5085935050505092915050565b600060208201905081810360008301526136f08184613678565b905092915050565b61370181612d81565b811461370c57600080fd5b50565b60008135905061371e816136f8565b92915050565b600067ffffffffffffffff82111561373f5761373e612e08565b5b602082029050602081019050919050565b600080fd5b600061376861376384613724565b612e68565b9050808382526020820190506020840283018581111561378b5761378a613750565b5b835b818110156137b457806137a08882612d3f565b84526020840193505060208101905061378d565b5050509392505050565b600082601f8301126137d3576137d2612ded565b5b81356137e3848260208601613755565b91505092915050565b60008060006060848603121561380557613804612cec565b5b60006138138682870161370f565b935050602084013567ffffffffffffffff81111561383457613833612cf1565b5b613840868287016137be565b925050604084013567ffffffffffffffff81111561386157613860612cf1565b5b61386d86828701612f05565b9150509250925092565b7f536572766572206e6f7420666f756e6400000000000000000000000000000000600082015250565b60006138ad601083613568565b91506138b882613877565b602082019050919050565b600060208201905081810360008301526138dc816138a0565b9050919050565b7f4e487b7100000000000000000000000000000000000000000000000000000000600052603260045260246000fd5b7f4e487b7100000000000000000000000000000000000000000000000000000000600052602260045260246000fd5b6000600282049050600182168061395957607f821691505b60208210810361396c5761396b613912565b5b50919050565b7f4163636573732064656e69656400000000000000000000000000000000000000600082015250565b60006139a8600d83613568565b91506139b382613972565b602082019050919050565b600060208201905081810360008301526139d78161399b565b9050919050565b60008190508160005260206000209050919050565b60006020601f8301049050919050565b600082821b905092915050565b600060088302613a407fffffffffffffffffffffffffffffffffffffffffffffffffffffffffffffffff82613a03565b613a4a8683613a03565b95508019841693508086168417925050509392505050565b6000819050919050565b6000613a87613a82613a7d84612db7565b613a62565b612db7565b9050919050565b6000819050919050565b613aa183613a6c565b613ab5613aad82613a8e565b848454613a10565b825550505050565b600090565b613aca613abd565b613ad5818484613a98565b505050565b5b81811015613af957613aee600082613ac2565b600181019050613adb565b5050565b601f821115613b3e57613b0f816139de565b613b18846139f3565b81016020851015613b27578190505b613b3b613b33856139f3565b830182613ada565b50505b505050565b600082821c905092915050565b6000613b6160001984600802613b43565b1980831691505092915050565b6000613b7a8383613b50565b9150826002028217905092915050565b613b9382612fd9565b67ffffffffffffffff811115613bac57613bab612e08565b5b613bb68254613941565b613bc1828285613afd565b600060209050601f831160018114613bf45760008415613be2578287015190505b613bec8582613b6e565b865550613c54565b601f198416613c02866139de565b60005b82811015613c2a57848901518255600182019150602085019450602081019050613c05565b86831015613c475784890151613c43601f891682613b50565b8355505b6001600288020188555050505b505050505050565b7f4e487b7100000000000000000000000000000000000000000000000000000000600052601160045260246000fd5b6000613c9682612db7565b91507fffffffffffffffffffffffffffffffffffffffffffffffffffffffffffffffff8203613cc857613cc7613c5c565b5b600182019050919050565b7f5573657220646f657320657869737420616c7265616479000000000000000000600082015250565b6000613d09601783613568565b9150613d1482613cd3565b602082019050919050565b60006020820190508181036000830152613d3881613cfc565b9050919050565b7f5573657220646f6573206e6f7420657869737400000000000000000000000000600082015250565b6000613d75601383613568565b9150613d8082613d3f565b602082019050919050565b60006020820190508181036000830152613da481613d68565b9050919050565b7f43616e6e6f742073656e6420667269656e64207265717565737420746f20736560008201527f6c66000000000000000000000000000000000000000000000000000000000000602082015250565b6000613e07602283613568565b9150613e1282613dab565b604082019050919050565b60006020820190508181036000830152613e3681613dfa565b9050919050565b7f4e6f20667269656e64207265717565737420666f756e64000000000000000000600082015250565b6000613e73601783613568565b9150613e7e82613e3d565b602082019050919050565b60006020820190508181036000830152613ea281613e66565b9050919050565b7f467269656e642072657175657374206e6f742061636365707465640000000000600082015250565b6000613edf601b83613568565b9150613eea82613ea9565b602082019050919050565b60006020820190508181036000830152613f0e81613ed2565b905091905056fea264697066735822122048d4a9fd02c1fbe20433b96d9a538652163bb1e3a202ce17788a04c763605c1e64736f6c63430008120033",
	"linkReferences": {},
	"deployedLinkReferences": {}
}